{
  "contractName": "PurchaseStockImage",
  "abi": [
    {
      "constant": true,
      "inputs": [],
      "name": "buyer",
      "outputs": [
        {
          "internalType": "address",
          "name": "",
          "type": "address"
        }
      ],
      "payable": false,
      "stateMutability": "view",
      "type": "function"
    },
    {
      "constant": true,
      "inputs": [],
      "name": "owner",
      "outputs": [
        {
          "internalType": "address",
          "name": "",
          "type": "address"
        }
      ],
      "payable": false,
      "stateMutability": "view",
      "type": "function"
    },
    {
      "inputs": [
        {
          "internalType": "address",
          "name": "buyerAddress",
          "type": "address"
        }
      ],
      "payable": false,
      "stateMutability": "nonpayable",
      "type": "constructor"
    },
    {
      "anonymous": false,
      "inputs": [
        {
          "indexed": false,
          "internalType": "address",
          "name": "buyer",
          "type": "address"
        },
        {
          "indexed": false,
          "internalType": "string",
          "name": "title",
          "type": "string"
        },
        {
          "indexed": false,
          "internalType": "string",
          "name": "webAddress",
          "type": "string"
        },
        {
          "indexed": false,
          "internalType": "uint256",
          "name": "price",
          "type": "uint256"
        },
        {
          "indexed": false,
          "internalType": "bool",
          "name": "isBought",
          "type": "bool"
        }
      ],
      "name": "PhotoAdded",
      "type": "event"
    },
    {
      "anonymous": false,
      "inputs": [
        {
          "indexed": false,
          "internalType": "address",
          "name": "buyer",
          "type": "address"
        },
        {
          "indexed": false,
          "internalType": "string",
          "name": "title",
          "type": "string"
        },
        {
          "indexed": false,
          "internalType": "string",
          "name": "webAddress",
          "type": "string"
        },
        {
          "indexed": false,
          "internalType": "uint256",
          "name": "price",
          "type": "uint256"
        },
        {
          "indexed": false,
          "internalType": "bool",
          "name": "isBought",
          "type": "bool"
        }
      ],
      "name": "PhotoBought",
      "type": "event"
    },
    {
      "constant": false,
      "inputs": [
        {
          "internalType": "string",
          "name": "title",
          "type": "string"
        },
        {
          "internalType": "string",
          "name": "webAddress",
          "type": "string"
        },
        {
          "internalType": "uint256",
          "name": "price",
          "type": "uint256"
        }
      ],
      "name": "addPhoto",
      "outputs": [],
      "payable": false,
      "stateMutability": "nonpayable",
      "type": "function"
    },
    {
      "constant": false,
      "inputs": [
        {
          "internalType": "uint256",
          "name": "photoID",
          "type": "uint256"
        }
      ],
      "name": "buyPhoto",
      "outputs": [],
      "payable": true,
      "stateMutability": "payable",
      "type": "function"
    }
  ],
  "bytecode": "0x6080604052600060035534801561001557600080fd5b50604051610bb6380380610bb68339818101604052602081101561003857600080fd5b8101908080519060200190929190505050336000806101000a81548173ffffffffffffffffffffffffffffffffffffffff021916908373ffffffffffffffffffffffffffffffffffffffff16021790555080600160006101000a81548173ffffffffffffffffffffffffffffffffffffffff021916908373ffffffffffffffffffffffffffffffffffffffff16021790555050610adc806100da6000396000f3fe60806040526004361061005c576000357c0100000000000000000000000000000000000000000000000000000000900480637150d8ae146100615780638da5cb5b146100b8578063a361b1e61461010f578063b2bf582614610278575b600080fd5b34801561006d57600080fd5b506100766102a6565b604051808273ffffffffffffffffffffffffffffffffffffffff1673ffffffffffffffffffffffffffffffffffffffff16815260200191505060405180910390f35b3480156100c457600080fd5b506100cd6102cc565b604051808273ffffffffffffffffffffffffffffffffffffffff1673ffffffffffffffffffffffffffffffffffffffff16815260200191505060405180910390f35b34801561011b57600080fd5b506102766004803603606081101561013257600080fd5b810190808035906020019064010000000081111561014f57600080fd5b82018360208201111561016157600080fd5b8035906020019184600183028401116401000000008311171561018357600080fd5b91908080601f016020809104026020016040519081016040528093929190818152602001838380828437600081840152601f19601f820116905080830192505050505050509192919290803590602001906401000000008111156101e657600080fd5b8201836020820111156101f857600080fd5b8035906020019184600183028401116401000000008311171561021a57600080fd5b91908080601f016020809104026020016040519081016040528093929190818152602001838380828437600081840152601f19601f820116905080830192505050505050509192919290803590602001909291905050506102f1565b005b6102a46004803603602081101561028e57600080fd5b8101908080359060200190929190505050610660565b005b600160009054906101000a900473ffffffffffffffffffffffffffffffffffffffff1681565b6000809054906101000a900473ffffffffffffffffffffffffffffffffffffffff1681565b6000809054906101000a900473ffffffffffffffffffffffffffffffffffffffff1673ffffffffffffffffffffffffffffffffffffffff163373ffffffffffffffffffffffffffffffffffffffff16146103b3576040517f08c379a00000000000000000000000000000000000000000000000000000000081526004018080602001828103825260128152602001807f5065726d697373696f6e2064656e6965642e000000000000000000000000000081525060200191505060405180910390fd5b600360008154809291906001019190505550604051806080016040528084815260200183815260200182815260200160001515815250600260006003548152602001908152602001600020600082015181600001908051906020019061041a929190610a02565b506020820151816001019080519060200190610437929190610a02565b506040820151816002015560608201518160030160006101000a81548160ff0219169083151502179055509050507ff0dda02851c7c0b3d66776f0877a7ab68c72d54ca327603b9aeaabd21da455e5336002600060035481526020019081526020016000206000016002600060035481526020019081526020016000206001016002600060035481526020019081526020016000206002015460026000600354815260200190815260200160002060030160009054906101000a900460ff16604051808673ffffffffffffffffffffffffffffffffffffffff1673ffffffffffffffffffffffffffffffffffffffff1681526020018060200180602001858152602001841515151581526020018381038352878181546001816001161561010002031660029004815260200191508054600181600116156101000203166002900480156105c55780601f1061059a576101008083540402835291602001916105c5565b820191906000526020600020905b8154815290600101906020018083116105a857829003601f168201915b50508381038252868181546001816001161561010002031660029004815260200191508054600181600116156101000203166002900480156106485780601f1061061d57610100808354040283529160200191610648565b820191906000526020600020905b81548152906001019060200180831161062b57829003601f168201915b505097505050505050505060405180910390a1505050565b600160009054906101000a900473ffffffffffffffffffffffffffffffffffffffff1673ffffffffffffffffffffffffffffffffffffffff163373ffffffffffffffffffffffffffffffffffffffff1614610723576040517f08c379a00000000000000000000000000000000000000000000000000000000081526004018080602001828103825260168152602001807f53656e646572206e6f7420617574686f72697a65642e0000000000000000000081525060200191505060405180910390fd5b6002600082815260200190815260200160002060030160009054906101000a900460ff166107b9576040517f08c379a00000000000000000000000000000000000000000000000000000000081526004018080602001828103825260188152602001807f50686f746f20697320616c726561647920626f756768742e000000000000000081525060200191505060405180910390fd5b6002600082815260200190815260200160002060030160009054906101000a900460ff166109ff5760016002600083815260200190815260200160002060030160006101000a81548160ff0219169083151502179055507f8b8c1c2a0fbaa02dddcaed543285f982c313cf43503f99f420c90acf9a9a456433600260008481526020019081526020016000206000016002600085815260200190815260200160002060010160026000868152602001908152602001600020600201546002600087815260200190815260200160002060030160009054906101000a900460ff16604051808673ffffffffffffffffffffffffffffffffffffffff1673ffffffffffffffffffffffffffffffffffffffff1681526020018060200180602001858152602001841515151581526020018381038352878181546001816001161561010002031660029004815260200191508054600181600116156101000203166002900480156109685780601f1061093d57610100808354040283529160200191610968565b820191906000526020600020905b81548152906001019060200180831161094b57829003601f168201915b50508381038252868181546001816001161561010002031660029004815260200191508054600181600116156101000203166002900480156109eb5780601f106109c0576101008083540402835291602001916109eb565b820191906000526020600020905b8154815290600101906020018083116109ce57829003601f168201915b505097505050505050505060405180910390a15b50565b828054600181600116156101000203166002900490600052602060002090601f016020900481019282601f10610a4357805160ff1916838001178555610a71565b82800160010185558215610a71579182015b82811115610a70578251825591602001919060010190610a55565b5b509050610a7e9190610a82565b5090565b610aa491905b80821115610aa0576000816000905550600101610a88565b5090565b9056fea265627a7a72315820099689d191a37a7dace684185e80294fe290cbd842a10ebb6ada7c86fda31b9364736f6c634300050b0032",
  "source": "pragma solidity ^0.5.11;\r\n\r\ncontract PurchaseStockImage {\r\n    address public owner;  // owner's adress\r\n    address public buyer;  // the person's adress that buys the image\r\n\r\n    struct Photo {\r\n        string title;\r\n        string webAddress;\r\n        uint price;\r\n        bool isBought;\r\n    }\r\n    \r\n    mapping (uint => Photo) photos;\r\n\r\n    uint photoSeq = 0;  // sequence/count\r\n\r\n    event PhotoAdded(address buyer, string title, string webAddress, uint price, bool isBought);\r\n    event PhotoBought(address buyer, string title, string webAddress, uint price, bool isBought);\r\n\r\n    constructor(address buyerAddress) public {  // constructor\r\n        owner = msg.sender;\r\n\r\n        buyer = buyerAddress;\r\n    }\r\n\r\n    function addPhoto(string memory title, string memory webAddress, uint price) public {\r\n        require(msg.sender == owner, \"Permission denied.\");\r\n\r\n        photoSeq++;\r\n\r\n        photos[photoSeq] = Photo(title, webAddress, price, false);\r\n\r\n        // trigger event\r\n        emit PhotoAdded(msg.sender, photos[photoSeq].title, photos[photoSeq].webAddress, photos[photoSeq].price, photos[photoSeq].isBought);\r\n    }\r\n\r\n    function buyPhoto(uint photoID) public payable {\r\n        require(msg.sender == buyer, \"Sender not authorized.\"); // buyer cannot be the seller\r\n\r\n        require(photos[photoID].isBought, \"Photo is already bought.\");\r\n\r\n        if (!photos[photoID].isBought) {\r\n            photos[photoID].isBought = true;\r\n\r\n            // trigger event\r\n            emit PhotoBought(msg.sender, photos[photoID].title, photos[photoID].webAddress, photos[photoID].price, photos[photoID].isBought);\r\n        }\r\n    }\r\n\r\n\r\n\r\n\r\n\r\n}",
  "sourcePath": "C:/Users/abelz/OneDrive/Desktop/VU MIF ISIS/Blockchain/Praktikos Darbas 4 - Smart Contract/contracts/PurchaseStockImage.sol",
  "compiler": {
    "name": "solc",
    "version": "0.5.11+commit.c082d0b4.Emscripten.clang"
  },
  "schemaVersion": "3.0.19",
  "updatedAt": "2019-12-20T03:21:08.506Z",
  "networkType": "ethereum",
  "devdoc": {
    "methods": {}
  },
  "userdoc": {
    "methods": {}
  }
}